{
  "contractName": "FreeSpeech",
  "abi": [
    {
      "inputs": [
        {
          "internalType": "address",
          "name": "_proofOfHumanity",
          "type": "address"
        }
      ],
      "stateMutability": "nonpayable",
      "type": "constructor"
    },
    {
      "anonymous": false,
      "inputs": [
        {
          "indexed": true,
          "internalType": "address",
          "name": "_user",
          "type": "address"
        },
        {
          "indexed": false,
          "internalType": "uint256",
          "name": "_pricePaid",
          "type": "uint256"
        }
      ],
      "name": "AccountActivated",
      "type": "event"
    },
    {
      "anonymous": false,
      "inputs": [
        {
          "indexed": true,
          "internalType": "address",
          "name": "_user",
          "type": "address"
        },
        {
          "indexed": false,
          "internalType": "address",
          "name": "_beneficiary",
          "type": "address"
        },
        {
          "indexed": false,
          "internalType": "uint256",
          "name": "_pricePaid",
          "type": "uint256"
        }
      ],
      "name": "AccountDeactivated",
      "type": "event"
    },
    {
      "anonymous": false,
      "inputs": [
        {
          "indexed": true,
          "internalType": "address",
          "name": "_user",
          "type": "address"
        }
      ],
      "name": "AccountVerified",
      "type": "event"
    },
    {
      "anonymous": false,
      "inputs": [
        {
          "indexed": false,
          "internalType": "uint256",
          "name": "_id",
          "type": "uint256"
        },
        {
          "indexed": false,
          "internalType": "string",
          "name": "_ipfsHash",
          "type": "string"
        },
        {
          "indexed": false,
          "internalType": "address payable",
          "name": "_author",
          "type": "address"
        },
        {
          "indexed": false,
          "internalType": "uint256",
          "name": "_timestamp",
          "type": "uint256"
        }
      ],
      "name": "PostCreated",
      "type": "event"
    },
    {
      "anonymous": false,
      "inputs": [
        {
          "indexed": false,
          "internalType": "uint256",
          "name": "_id",
          "type": "uint256"
        },
        {
          "indexed": false,
          "internalType": "uint256",
          "name": "_tip",
          "type": "uint256"
        },
        {
          "indexed": false,
          "internalType": "uint256",
          "name": "_tipAmount",
          "type": "uint256"
        },
        {
          "indexed": false,
          "internalType": "address payable",
          "name": "_author",
          "type": "address"
        },
        {
          "indexed": false,
          "internalType": "address",
          "name": "_by",
          "type": "address"
        }
      ],
      "name": "PostTipped",
      "type": "event"
    },
    {
      "anonymous": false,
      "inputs": [
        {
          "indexed": false,
          "internalType": "uint256",
          "name": "_reportId",
          "type": "uint256"
        },
        {
          "indexed": false,
          "internalType": "address payable",
          "name": "_winner",
          "type": "address"
        },
        {
          "indexed": false,
          "internalType": "address payable",
          "name": "_loser",
          "type": "address"
        },
        {
          "indexed": false,
          "internalType": "uint256",
          "name": "_amountWon",
          "type": "uint256"
        },
        {
          "indexed": false,
          "internalType": "uint256",
          "name": "_upVoteCount",
          "type": "uint256"
        },
        {
          "indexed": false,
          "internalType": "uint256",
          "name": "_downVoteCount",
          "type": "uint256"
        }
      ],
      "name": "ReportWinner",
      "type": "event"
    },
    {
      "anonymous": false,
      "inputs": [
        {
          "indexed": false,
          "internalType": "uint256",
          "name": "_postId",
          "type": "uint256"
        },
        {
          "indexed": false,
          "internalType": "address payable",
          "name": "_by",
          "type": "address"
        }
      ],
      "name": "Reported",
      "type": "event"
    },
    {
      "anonymous": false,
      "inputs": [
        {
          "indexed": false,
          "internalType": "uint256",
          "name": "_reportId",
          "type": "uint256"
        },
        {
          "indexed": false,
          "internalType": "address",
          "name": "_user",
          "type": "address"
        },
        {
          "indexed": false,
          "internalType": "bool",
          "name": "_upVote",
          "type": "bool"
        }
      ],
      "name": "Voted",
      "type": "event"
    },
    {
      "inputs": [],
      "name": "POST_CREATION_TIMEOUT",
      "outputs": [
        {
          "internalType": "uint256",
          "name": "",
          "type": "uint256"
        }
      ],
      "stateMutability": "view",
      "type": "function",
      "constant": true
    },
    {
      "inputs": [],
      "name": "REPORT_CHECK_WINNER_TIME",
      "outputs": [
        {
          "internalType": "uint256",
          "name": "",
          "type": "uint256"
        }
      ],
      "stateMutability": "view",
      "type": "function",
      "constant": true
    },
    {
      "inputs": [],
      "name": "REPORT_VOTING_TIME",
      "outputs": [
        {
          "internalType": "uint256",
          "name": "",
          "type": "uint256"
        }
      ],
      "stateMutability": "view",
      "type": "function",
      "constant": true
    },
    {
      "inputs": [],
      "name": "basePriceForUnverifiedUser",
      "outputs": [
        {
          "internalType": "uint256",
          "name": "",
          "type": "uint256"
        }
      ],
      "stateMutability": "view",
      "type": "function",
      "constant": true
    },
    {
      "inputs": [],
      "name": "basePriceForVerifiedUser",
      "outputs": [
        {
          "internalType": "uint256",
          "name": "",
          "type": "uint256"
        }
      ],
      "stateMutability": "view",
      "type": "function",
      "constant": true
    },
    {
      "inputs": [],
      "name": "penaltyFactor",
      "outputs": [
        {
          "internalType": "uint256",
          "name": "",
          "type": "uint256"
        }
      ],
      "stateMutability": "view",
      "type": "function",
      "constant": true
    },
    {
      "inputs": [
        {
          "internalType": "uint256",
          "name": "",
          "type": "uint256"
        }
      ],
      "name": "posts",
      "outputs": [
        {
          "internalType": "string",
          "name": "ipfsHash",
          "type": "string"
        },
        {
          "internalType": "uint256",
          "name": "tipAmount",
          "type": "uint256"
        },
        {
          "internalType": "address payable",
          "name": "author",
          "type": "address"
        },
        {
          "internalType": "bool",
          "name": "isDisabled",
          "type": "bool"
        },
        {
          "internalType": "uint256",
          "name": "timestamp",
          "type": "uint256"
        }
      ],
      "stateMutability": "view",
      "type": "function",
      "constant": true
    },
    {
      "inputs": [
        {
          "internalType": "uint256",
          "name": "",
          "type": "uint256"
        }
      ],
      "name": "reports",
      "outputs": [
        {
          "internalType": "address payable",
          "name": "userReporting",
          "type": "address"
        },
        {
          "internalType": "uint256",
          "name": "postId",
          "type": "uint256"
        },
        {
          "internalType": "uint256",
          "name": "upVotes",
          "type": "uint256"
        },
        {
          "internalType": "uint256",
          "name": "downVotes",
          "type": "uint256"
        },
        {
          "internalType": "uint256",
          "name": "timestamp",
          "type": "uint256"
        },
        {
          "internalType": "bool",
          "name": "isFinished",
          "type": "bool"
        }
      ],
      "stateMutability": "view",
      "type": "function",
      "constant": true
    },
    {
      "inputs": [
        {
          "internalType": "address",
          "name": "",
          "type": "address"
        }
      ],
      "name": "users",
      "outputs": [
        {
          "internalType": "bool",
          "name": "isVerified",
          "type": "bool"
        },
        {
          "internalType": "uint256",
          "name": "penaltyCount",
          "type": "uint256"
        },
        {
          "internalType": "uint256",
          "name": "pricePaid",
          "type": "uint256"
        }
      ],
      "stateMutability": "view",
      "type": "function",
      "constant": true
    },
    {
      "inputs": [
        {
          "internalType": "uint256",
          "name": "",
          "type": "uint256"
        },
        {
          "internalType": "address",
          "name": "",
          "type": "address"
        }
      ],
      "name": "voted",
      "outputs": [
        {
          "internalType": "bool",
          "name": "",
          "type": "bool"
        }
      ],
      "stateMutability": "view",
      "type": "function",
      "constant": true
    },
    {
      "inputs": [
        {
          "internalType": "address",
          "name": "_user",
          "type": "address"
        }
      ],
      "name": "getUserIsVerified",
      "outputs": [
        {
          "internalType": "bool",
          "name": "",
          "type": "bool"
        }
      ],
      "stateMutability": "view",
      "type": "function",
      "constant": true
    },
    {
      "inputs": [
        {
          "internalType": "address",
          "name": "_user",
          "type": "address"
        }
      ],
      "name": "getUserPenaltyCount",
      "outputs": [
        {
          "internalType": "uint256",
          "name": "",
          "type": "uint256"
        }
      ],
      "stateMutability": "view",
      "type": "function",
      "constant": true
    },
    {
      "inputs": [
        {
          "internalType": "address",
          "name": "_user",
          "type": "address"
        }
      ],
      "name": "getUserPricePaid",
      "outputs": [
        {
          "internalType": "uint256",
          "name": "",
          "type": "uint256"
        }
      ],
      "stateMutability": "view",
      "type": "function",
      "constant": true
    },
    {
      "inputs": [
        {
          "internalType": "address",
          "name": "_user",
          "type": "address"
        }
      ],
      "name": "getUserPostOwnerLength",
      "outputs": [
        {
          "internalType": "uint256",
          "name": "",
          "type": "uint256"
        }
      ],
      "stateMutability": "view",
      "type": "function",
      "constant": true
    },
    {
      "inputs": [
        {
          "internalType": "address",
          "name": "_user",
          "type": "address"
        }
      ],
      "name": "getUserPostOwner",
      "outputs": [
        {
          "internalType": "uint256[]",
          "name": "",
          "type": "uint256[]"
        }
      ],
      "stateMutability": "view",
      "type": "function",
      "constant": true
    },
    {
      "inputs": [
        {
          "internalType": "uint256",
          "name": "_id",
          "type": "uint256"
        }
      ],
      "name": "getPostById",
      "outputs": [
        {
          "components": [
            {
              "internalType": "string",
              "name": "ipfsHash",
              "type": "string"
            },
            {
              "internalType": "uint256",
              "name": "tipAmount",
              "type": "uint256"
            },
            {
              "internalType": "address payable",
              "name": "author",
              "type": "address"
            },
            {
              "internalType": "bool",
              "name": "isDisabled",
              "type": "bool"
            },
            {
              "internalType": "uint256",
              "name": "timestamp",
              "type": "uint256"
            }
          ],
          "internalType": "struct FreeSpeech.Post",
          "name": "",
          "type": "tuple"
        }
      ],
      "stateMutability": "view",
      "type": "function",
      "constant": true
    },
    {
      "inputs": [
        {
          "internalType": "address",
          "name": "_user",
          "type": "address"
        }
      ],
      "name": "getUserLastPostId",
      "outputs": [
        {
          "internalType": "uint256",
          "name": "",
          "type": "uint256"
        }
      ],
      "stateMutability": "view",
      "type": "function",
      "constant": true
    },
    {
      "inputs": [
        {
          "internalType": "uint256",
          "name": "_id",
          "type": "uint256"
        }
      ],
      "name": "getPostIPFSHash",
      "outputs": [
        {
          "internalType": "string",
          "name": "",
          "type": "string"
        }
      ],
      "stateMutability": "view",
      "type": "function",
      "constant": true
    },
    {
      "inputs": [
        {
          "internalType": "uint256",
          "name": "_id",
          "type": "uint256"
        }
      ],
      "name": "getPostTipAmount",
      "outputs": [
        {
          "internalType": "uint256",
          "name": "",
          "type": "uint256"
        }
      ],
      "stateMutability": "view",
      "type": "function",
      "constant": true
    },
    {
      "inputs": [
        {
          "internalType": "uint256",
          "name": "_id",
          "type": "uint256"
        }
      ],
      "name": "getPostAuthor",
      "outputs": [
        {
          "internalType": "address payable",
          "name": "",
          "type": "address"
        }
      ],
      "stateMutability": "view",
      "type": "function",
      "constant": true
    },
    {
      "inputs": [
        {
          "internalType": "uint256",
          "name": "_id",
          "type": "uint256"
        }
      ],
      "name": "getPostIsDisabled",
      "outputs": [
        {
          "internalType": "bool",
          "name": "",
          "type": "bool"
        }
      ],
      "stateMutability": "view",
      "type": "function",
      "constant": true
    },
    {
      "inputs": [
        {
          "internalType": "uint256",
          "name": "_id",
          "type": "uint256"
        }
      ],
      "name": "getPostTimestamp",
      "outputs": [
        {
          "internalType": "uint256",
          "name": "",
          "type": "uint256"
        }
      ],
      "stateMutability": "view",
      "type": "function",
      "constant": true
    },
    {
      "inputs": [],
      "name": "getPostsLength",
      "outputs": [
        {
          "internalType": "uint256",
          "name": "",
          "type": "uint256"
        }
      ],
      "stateMutability": "view",
      "type": "function",
      "constant": true
    },
    {
      "inputs": [],
      "name": "getPosts",
      "outputs": [
        {
          "components": [
            {
              "internalType": "string",
              "name": "ipfsHash",
              "type": "string"
            },
            {
              "internalType": "uint256",
              "name": "tipAmount",
              "type": "uint256"
            },
            {
              "internalType": "address payable",
              "name": "author",
              "type": "address"
            },
            {
              "internalType": "bool",
              "name": "isDisabled",
              "type": "bool"
            },
            {
              "internalType": "uint256",
              "name": "timestamp",
              "type": "uint256"
            }
          ],
          "internalType": "struct FreeSpeech.Post[]",
          "name": "",
          "type": "tuple[]"
        }
      ],
      "stateMutability": "view",
      "type": "function",
      "constant": true
    },
    {
      "inputs": [
        {
          "internalType": "uint256",
          "name": "_id",
          "type": "uint256"
        },
        {
          "internalType": "address",
          "name": "_user",
          "type": "address"
        }
      ],
      "name": "userAlreadyVoted",
      "outputs": [
        {
          "internalType": "bool",
          "name": "",
          "type": "bool"
        }
      ],
      "stateMutability": "view",
      "type": "function",
      "constant": true
    },
    {
      "inputs": [
        {
          "internalType": "uint256",
          "name": "_id",
          "type": "uint256"
        }
      ],
      "name": "getReportById",
      "outputs": [
        {
          "components": [
            {
              "internalType": "address payable",
              "name": "userReporting",
              "type": "address"
            },
            {
              "internalType": "uint256",
              "name": "postId",
              "type": "uint256"
            },
            {
              "internalType": "uint256",
              "name": "upVotes",
              "type": "uint256"
            },
            {
              "internalType": "uint256",
              "name": "downVotes",
              "type": "uint256"
            },
            {
              "internalType": "uint256",
              "name": "timestamp",
              "type": "uint256"
            },
            {
              "internalType": "bool",
              "name": "isFinished",
              "type": "bool"
            }
          ],
          "internalType": "struct FreeSpeech.Report",
          "name": "",
          "type": "tuple"
        }
      ],
      "stateMutability": "view",
      "type": "function",
      "constant": true
    },
    {
      "inputs": [
        {
          "internalType": "uint256",
          "name": "_id",
          "type": "uint256"
        }
      ],
      "name": "getReportUserReporting",
      "outputs": [
        {
          "internalType": "address payable",
          "name": "",
          "type": "address"
        }
      ],
      "stateMutability": "view",
      "type": "function",
      "constant": true
    },
    {
      "inputs": [
        {
          "internalType": "uint256",
          "name": "_id",
          "type": "uint256"
        }
      ],
      "name": "getReportUserReported",
      "outputs": [
        {
          "internalType": "address payable",
          "name": "",
          "type": "address"
        }
      ],
      "stateMutability": "view",
      "type": "function",
      "constant": true
    },
    {
      "inputs": [
        {
          "internalType": "uint256",
          "name": "_id",
          "type": "uint256"
        }
      ],
      "name": "getReportPostId",
      "outputs": [
        {
          "internalType": "uint256",
          "name": "",
          "type": "uint256"
        }
      ],
      "stateMutability": "view",
      "type": "function",
      "constant": true
    },
    {
      "inputs": [
        {
          "internalType": "uint256",
          "name": "_id",
          "type": "uint256"
        }
      ],
      "name": "getReportIsFinished",
      "outputs": [
        {
          "internalType": "bool",
          "name": "",
          "type": "bool"
        }
      ],
      "stateMutability": "view",
      "type": "function",
      "constant": true
    },
    {
      "inputs": [
        {
          "internalType": "uint256",
          "name": "_id",
          "type": "uint256"
        }
      ],
      "name": "getReportUpVotes",
      "outputs": [
        {
          "internalType": "uint256",
          "name": "",
          "type": "uint256"
        }
      ],
      "stateMutability": "view",
      "type": "function",
      "constant": true
    },
    {
      "inputs": [
        {
          "internalType": "uint256",
          "name": "_id",
          "type": "uint256"
        }
      ],
      "name": "getReportDownVotes",
      "outputs": [
        {
          "internalType": "uint256",
          "name": "",
          "type": "uint256"
        }
      ],
      "stateMutability": "view",
      "type": "function",
      "constant": true
    },
    {
      "inputs": [
        {
          "internalType": "uint256",
          "name": "_id",
          "type": "uint256"
        }
      ],
      "name": "getReportTimestamp",
      "outputs": [
        {
          "internalType": "uint256",
          "name": "",
          "type": "uint256"
        }
      ],
      "stateMutability": "view",
      "type": "function",
      "constant": true
    },
    {
      "inputs": [],
      "name": "getReportsLength",
      "outputs": [
        {
          "internalType": "uint256",
          "name": "",
          "type": "uint256"
        }
      ],
      "stateMutability": "view",
      "type": "function",
      "constant": true
    },
    {
      "inputs": [],
      "name": "getCurrentReportsLength",
      "outputs": [
        {
          "internalType": "uint256",
          "name": "",
          "type": "uint256"
        }
      ],
      "stateMutability": "view",
      "type": "function",
      "constant": true
    },
    {
      "inputs": [],
      "name": "getReports",
      "outputs": [
        {
          "components": [
            {
              "internalType": "address payable",
              "name": "userReporting",
              "type": "address"
            },
            {
              "internalType": "uint256",
              "name": "postId",
              "type": "uint256"
            },
            {
              "internalType": "uint256",
              "name": "upVotes",
              "type": "uint256"
            },
            {
              "internalType": "uint256",
              "name": "downVotes",
              "type": "uint256"
            },
            {
              "internalType": "uint256",
              "name": "timestamp",
              "type": "uint256"
            },
            {
              "internalType": "bool",
              "name": "isFinished",
              "type": "bool"
            }
          ],
          "internalType": "struct FreeSpeech.Report[]",
          "name": "",
          "type": "tuple[]"
        }
      ],
      "stateMutability": "view",
      "type": "function",
      "constant": true
    },
    {
      "inputs": [],
      "name": "getCurrentReports",
      "outputs": [
        {
          "components": [
            {
              "internalType": "address payable",
              "name": "userReporting",
              "type": "address"
            },
            {
              "internalType": "uint256",
              "name": "postId",
              "type": "uint256"
            },
            {
              "internalType": "uint256",
              "name": "upVotes",
              "type": "uint256"
            },
            {
              "internalType": "uint256",
              "name": "downVotes",
              "type": "uint256"
            },
            {
              "internalType": "uint256",
              "name": "timestamp",
              "type": "uint256"
            },
            {
              "internalType": "bool",
              "name": "isFinished",
              "type": "bool"
            }
          ],
          "internalType": "struct FreeSpeech.Report[]",
          "name": "",
          "type": "tuple[]"
        }
      ],
      "stateMutability": "view",
      "type": "function",
      "constant": true
    },
    {
      "inputs": [
        {
          "internalType": "address",
          "name": "_user",
          "type": "address"
        }
      ],
      "name": "checkUserIsInvolvedInACurrentReport",
      "outputs": [
        {
          "internalType": "bool",
          "name": "",
          "type": "bool"
        }
      ],
      "stateMutability": "view",
      "type": "function",
      "constant": true
    },
    {
      "inputs": [
        {
          "internalType": "address",
          "name": "_user",
          "type": "address"
        }
      ],
      "name": "getAccountActivationPrice",
      "outputs": [
        {
          "internalType": "uint256",
          "name": "",
          "type": "uint256"
        }
      ],
      "stateMutability": "view",
      "type": "function",
      "constant": true
    },
    {
      "inputs": [
        {
          "internalType": "address",
          "name": "_user",
          "type": "address"
        }
      ],
      "name": "hasActiveAccount",
      "outputs": [
        {
          "internalType": "bool",
          "name": "",
          "type": "bool"
        }
      ],
      "stateMutability": "view",
      "type": "function",
      "constant": true
    },
    {
      "inputs": [
        {
          "internalType": "uint256",
          "name": "_id",
          "type": "uint256"
        }
      ],
      "name": "checkPostTimeoutEnded",
      "outputs": [
        {
          "internalType": "bool",
          "name": "",
          "type": "bool"
        }
      ],
      "stateMutability": "view",
      "type": "function",
      "constant": true
    },
    {
      "inputs": [],
      "name": "getBlockTimestamp",
      "outputs": [
        {
          "internalType": "uint256",
          "name": "",
          "type": "uint256"
        }
      ],
      "stateMutability": "view",
      "type": "function",
      "constant": true
    },
    {
      "inputs": [
        {
          "internalType": "uint256",
          "name": "_id",
          "type": "uint256"
        }
      ],
      "name": "getPostTimeoutLeft",
      "outputs": [
        {
          "internalType": "uint256",
          "name": "",
          "type": "uint256"
        }
      ],
      "stateMutability": "view",
      "type": "function",
      "constant": true
    },
    {
      "inputs": [
        {
          "internalType": "uint256",
          "name": "_id",
          "type": "uint256"
        }
      ],
      "name": "checkReportVotingTimeEnded",
      "outputs": [
        {
          "internalType": "bool",
          "name": "",
          "type": "bool"
        }
      ],
      "stateMutability": "view",
      "type": "function",
      "constant": true
    },
    {
      "inputs": [
        {
          "internalType": "uint256",
          "name": "_id",
          "type": "uint256"
        }
      ],
      "name": "getReportVotingTimeLeft",
      "outputs": [
        {
          "internalType": "uint256",
          "name": "",
          "type": "uint256"
        }
      ],
      "stateMutability": "view",
      "type": "function",
      "constant": true
    },
    {
      "inputs": [
        {
          "internalType": "uint256",
          "name": "_id",
          "type": "uint256"
        }
      ],
      "name": "checkReportWinnerTimeEnded",
      "outputs": [
        {
          "internalType": "bool",
          "name": "",
          "type": "bool"
        }
      ],
      "stateMutability": "view",
      "type": "function",
      "constant": true
    },
    {
      "inputs": [
        {
          "internalType": "uint256",
          "name": "_id",
          "type": "uint256"
        }
      ],
      "name": "getReportWinnerTimeLeft",
      "outputs": [
        {
          "internalType": "uint256",
          "name": "",
          "type": "uint256"
        }
      ],
      "stateMutability": "view",
      "type": "function",
      "constant": true
    },
    {
      "inputs": [],
      "name": "getVerified",
      "outputs": [],
      "stateMutability": "nonpayable",
      "type": "function"
    },
    {
      "inputs": [],
      "name": "activateAccount",
      "outputs": [],
      "stateMutability": "payable",
      "type": "function",
      "payable": true
    },
    {
      "inputs": [
        {
          "internalType": "address payable",
          "name": "_to",
          "type": "address"
        }
      ],
      "name": "deactivateAccount",
      "outputs": [],
      "stateMutability": "nonpayable",
      "type": "function"
    },
    {
      "inputs": [
        {
          "internalType": "string",
          "name": "_postIPFSHash",
          "type": "string"
        }
      ],
      "name": "uploadPost",
      "outputs": [],
      "stateMutability": "nonpayable",
      "type": "function"
    },
    {
      "inputs": [
        {
          "internalType": "uint256",
          "name": "_postId",
          "type": "uint256"
        }
      ],
      "name": "tipPostOwner",
      "outputs": [],
      "stateMutability": "payable",
      "type": "function",
      "payable": true
    },
    {
      "inputs": [
        {
          "internalType": "uint256",
          "name": "_postId",
          "type": "uint256"
        }
      ],
      "name": "report",
      "outputs": [],
      "stateMutability": "nonpayable",
      "type": "function"
    },
    {
      "inputs": [
        {
          "internalType": "uint256",
          "name": "_reportId",
          "type": "uint256"
        },
        {
          "internalType": "bool",
          "name": "_up",
          "type": "bool"
        }
      ],
      "name": "vote",
      "outputs": [],
      "stateMutability": "nonpayable",
      "type": "function"
    },
    {
      "inputs": [
        {
          "internalType": "uint256",
          "name": "_reportId",
          "type": "uint256"
        }
      ],
      "name": "getReportWinner",
      "outputs": [],
      "stateMutability": "nonpayable",
      "type": "function"
    }
  ],
  "bytecode": "0x60806040523480156200001157600080fd5b50604051620055bb380380620055bb833981810160405281019062000037919062000095565b806000806101000a81548173ffffffffffffffffffffffffffffffffffffffff021916908373ffffffffffffffffffffffffffffffffffffffff160217905550506200010f565b6000815190506200008f81620000f5565b92915050565b600060208284031215620000a857600080fd5b6000620000b8848285016200007e565b91505092915050565b6000620000ce82620000d5565b9050919050565b600073ffffffffffffffffffffffffffffffffffffffff82169050919050565b6200010081620000c1565b81146200010c57600080fd5b50565b61549c806200011f6000396000f3fe6080604052600436106103505760003560e01c806369ae3306116101c6578063ad32e3a5116100f7578063e289008e11610095578063ed1131c71161006f578063ed1131c714610dd1578063f626ad1214610e0e578063fa6c000914610e39578063fe4ee6e614610e7657610350565b8063e289008e14610d2c578063e50af84914610d57578063e56a0e1614610d9457610350565b8063c942adf7116100d1578063c942adf714610c68578063c9d27afe14610caa578063d6313c0614610cd3578063dbfb45d914610cef57610350565b8063ad32e3a514610bd7578063bdd05adb14610c14578063c6def16914610c3d57610350565b8063796b89b911610164578063969b1cdb1161013e578063969b1cdb14610b07578063a3c86daf14610b30578063a639020814610b5b578063a87430ba14610b9857610350565b8063796b89b914610a7457806387055d8814610a9f5780639412cc7a14610adc57610350565b80636f26f7d8116101a05780636f26f7d8146109c7578063718e2ff7146109d157806371d181ee14610a0e57806373f5ad1814610a4b57610350565b806369ae33061461091057806369c9c8d01461094d5780636a5e2a901461098a57610350565b806341f3004a116102a057806356a6eb8e1161023e5780635fb03824116102185780635fb03824146108525780636112d6db1461087d578063618a8d00146108a857806364e95895146108d357610350565b806356a6eb8e1461079b57806357da077f146107d85780635a7d52c41461081557610350565b806349e954ba1161027a57806349e954ba146106a75780634eb633e6146106e45780635277b4ae1461072157806352e1e0cb1461075e57610350565b806341f3004a1461060257806345a05bfb1461062d57806345c146711461066a57610350565b80631cd7fae51161030d5780633221cd69116102e75780633221cd6914610546578063331ac883146105715780633a0d3c1b146105ae578063406e6709146105eb57610350565b80631cd7fae51461048f578063235a0288146104cc57806325f1624f1461050957610350565b806304bf6eff146103555780630b1e7f83146103925780630fd88469146103d3578063130cb5f0146103fe57806316f62430146104275780631cc2d88114610452575b600080fd5b34801561036157600080fd5b5061037c6004803603810190610377919061393a565b610eb3565b604051610389919061438c565b60405180910390f35b34801561039e57600080fd5b506103b960048036038101906103b491906139f6565b610f0c565b6040516103ca959493929190614400565b60405180910390f35b3480156103df57600080fd5b506103e8611007565b6040516103f591906147d7565b60405180910390f35b34801561040a57600080fd5b5061042560048036038101906104209190613963565b611013565b005b34801561043357600080fd5b5061043c6111cf565b60405161044991906147d7565b60405180910390f35b34801561045e57600080fd5b5061047960048036038101906104749190613a1f565b61122f565b604051610486919061438c565b60405180910390f35b34801561049b57600080fd5b506104b660048036038101906104b191906139f6565b611297565b6040516104c391906147d7565b60405180910390f35b3480156104d857600080fd5b506104f360048036038101906104ee91906139f6565b6112cb565b604051610500919061438c565b60405180910390f35b34801561051557600080fd5b50610530600480360381019061052b91906139f6565b6112f9565b60405161053d91906147d7565b60405180910390f35b34801561055257600080fd5b5061055b611322565b60405161056891906147d7565b60405180910390f35b34801561057d57600080fd5b50610598600480360381019061059391906139f6565b611327565b6040516105a5919061438c565b60405180910390f35b3480156105ba57600080fd5b506105d560048036038101906105d091906139f6565b611355565b6040516105e291906147d7565b60405180910390f35b3480156105f757600080fd5b506106006113aa565b005b34801561060e57600080fd5b50610617611538565b6040516106249190614326565b60405180910390f35b34801561063957600080fd5b50610654600480360381019061064f91906139f6565b611633565b60405161066191906147bc565b60405180910390f35b34801561067657600080fd5b50610691600480360381019061068c91906139f6565b61172e565b60405161069e9190614281565b60405180910390f35b3480156106b357600080fd5b506106ce60048036038101906106c9919061393a565b6117a3565b6040516106db91906147d7565b60405180910390f35b3480156106f057600080fd5b5061070b6004803603810190610706919061393a565b6117f2565b60405161071891906147d7565b60405180910390f35b34801561072d57600080fd5b5061074860048036038101906107439190613a1f565b61183e565b604051610755919061438c565b60405180910390f35b34801561076a57600080fd5b506107856004803603810190610780919061393a565b61186d565b604051610792919061438c565b60405180910390f35b3480156107a757600080fd5b506107c260048036038101906107bd919061393a565b61188f565b6040516107cf91906147d7565b60405180910390f35b3480156107e457600080fd5b506107ff60048036038101906107fa91906139f6565b611931565b60405161080c91906147d7565b60405180910390f35b34801561082157600080fd5b5061083c600480360381019061083791906139f6565b61195a565b60405161084991906147d7565b60405180910390f35b34801561085e57600080fd5b506108676119af565b60405161087491906147d7565b60405180910390f35b34801561088957600080fd5b506108926119ba565b60405161089f91906147d7565b60405180910390f35b3480156108b457600080fd5b506108bd6119bf565b6040516108ca9190614348565b60405180910390f35b3480156108df57600080fd5b506108fa60048036038101906108f591906139f6565b611af6565b604051610907919061479a565b60405180910390f35b34801561091c57600080fd5b50610937600480360381019061093291906139f6565b611c6f565b60405161094491906147d7565b60405180910390f35b34801561095957600080fd5b50610974600480360381019061096f91906139f6565b611cc4565b6040516109819190614281565b60405180910390f35b34801561099657600080fd5b506109b160048036038101906109ac91906139f6565b611d39565b6040516109be919061438c565b60405180910390f35b6109cf611d72565b005b3480156109dd57600080fd5b506109f860048036038101906109f391906139f6565b611e67565b604051610a05919061438c565b60405180910390f35b348015610a1a57600080fd5b50610a356004803603810190610a3091906139f6565b611ec9565b604051610a42919061438c565b60405180910390f35b348015610a5757600080fd5b50610a726004803603810190610a6d91906139f6565b611f2b565b005b348015610a8057600080fd5b50610a896121e9565b604051610a9691906147d7565b60405180910390f35b348015610aab57600080fd5b50610ac66004803603810190610ac191906139f6565b6121f1565b604051610ad391906147d7565b60405180910390f35b348015610ae857600080fd5b50610af1612246565b604051610afe91906147d7565b60405180910390f35b348015610b1357600080fd5b50610b2e6004803603810190610b2991906139f6565b612253565b005b348015610b3c57600080fd5b50610b45612549565b604051610b529190614348565b60405180910390f35b348015610b6757600080fd5b50610b826004803603810190610b7d91906139f6565b612644565b604051610b8f91906143de565b60405180910390f35b348015610ba457600080fd5b50610bbf6004803603810190610bba919061393a565b612721565b604051610bce939291906143a7565b60405180910390f35b348015610be357600080fd5b50610bfe6004803603810190610bf9919061393a565b612758565b604051610c0b91906147d7565b60405180910390f35b348015610c2057600080fd5b50610c3b6004803603810190610c3691906139b5565b6127a4565b005b348015610c4957600080fd5b50610c52612942565b604051610c5f91906147d7565b60405180910390f35b348015610c7457600080fd5b50610c8f6004803603810190610c8a91906139f6565b612947565b604051610ca1969594939291906142c5565b60405180910390f35b348015610cb657600080fd5b50610cd16004803603810190610ccc9190613a5b565b6129c0565b005b610ced6004803603810190610ce891906139f6565b612c62565b005b348015610cfb57600080fd5b50610d166004803603810190610d11919061393a565b612e93565b604051610d2391906147d7565b60405180910390f35b348015610d3857600080fd5b50610d41612f00565b604051610d4e91906147d7565b60405180910390f35b348015610d6357600080fd5b50610d7e6004803603810190610d7991906139f6565b612f0d565b604051610d8b91906147d7565b60405180910390f35b348015610da057600080fd5b50610dbb6004803603810190610db6919061393a565b612f62565b604051610dc8919061436a565b60405180910390f35b348015610ddd57600080fd5b50610df86004803603810190610df391906139f6565b612ffc565b604051610e059190614281565b60405180910390f35b348015610e1a57600080fd5b50610e23613016565b604051610e3091906147d7565b60405180910390f35b348015610e4557600080fd5b50610e606004803603810190610e5b919061393a565b61301b565b604051610e6d919061438c565b60405180910390f35b348015610e8257600080fd5b50610e9d6004803603810190610e9891906139f6565b613158565b604051610eaa91906147d7565b60405180910390f35b6000600160008373ffffffffffffffffffffffffffffffffffffffff1673ffffffffffffffffffffffffffffffffffffffff16815260200190815260200160002060000160009054906101000a900460ff169050919050565b60028181548110610f1c57600080fd5b9060005260206000209060040201600091509050806000018054610f3f90614c36565b80601f0160208091040260200160405190810160405280929190818152602001828054610f6b90614c36565b8015610fb85780601f10610f8d57610100808354040283529160200191610fb8565b820191906000526020600020905b815481529060010190602001808311610f9b57829003601f168201915b5050505050908060010154908060020160009054906101000a900473ffffffffffffffffffffffffffffffffffffffff16908060020160149054906101000a900460ff16908060030154905085565b67016345785d8a000081565b33600115156110218261186d565b151514611063576040517f08c379a000000000000000000000000000000000000000000000000000000000815260040161105a9061465a565b60405180910390fd5b600061106e336117a3565b11156110cc57600115156110896110843361188f565b6112cb565b1515146110cb576040517f08c379a00000000000000000000000000000000000000000000000000000000081526004016110c2906144ba565b60405180910390fd5b5b600015156110d93361301b565b15151461111b576040517f08c379a00000000000000000000000000000000000000000000000000000000081526004016111129061459a565b60405180910390fd5b600061112633612758565b90506111333360006131ad565b3373ffffffffffffffffffffffffffffffffffffffff167f707225da110445d99840f6431965b4de3845c8c6a7bf3ad04405a8731f5dbdc7848360405161117b92919061429c565b60405180910390a28273ffffffffffffffffffffffffffffffffffffffff166108fc829081150290604051600060405180830381858888f193505050501580156111c9573d6000803e3d6000fd5b50505050565b60008060005b6111dd612246565b811015611227576111ed81611d39565b15801561120057506111fe81611ec9565b155b1561121457818061121090614c99565b9250505b808061121f90614c99565b9150506111d5565b508091505090565b60006004600084815260200190815260200160002060008373ffffffffffffffffffffffffffffffffffffffff1673ffffffffffffffffffffffffffffffffffffffff16815260200190815260200160002060009054906101000a900460ff16905092915050565b600042603c806112a685612f0d565b6112b09190614a80565b6112ba9190614a80565b6112c49190614b30565b9050919050565b6000603c6112d883613158565b6112e29190614a80565b42106112ef5760016112f2565b60005b9050919050565b600042603c61130784613158565b6113119190614a80565b61131b9190614b30565b9050919050565b603c81565b6000603c61133483612f0d565b61133e9190614a80565b421061134b57600161134e565b60005b9050919050565b600060028281548110611391577f4e487b7100000000000000000000000000000000000000000000000000000000600052603260045260246000fd5b9060005260206000209060040201600101549050919050565b600015156113b733610eb3565b1515146113f9576040517f08c379a00000000000000000000000000000000000000000000000000000000081526004016113f09061451a565b60405180910390fd5b6001151560008054906101000a900473ffffffffffffffffffffffffffffffffffffffff1673ffffffffffffffffffffffffffffffffffffffff1663c3c5a547336040518263ffffffff1660e01b81526004016114569190614266565b60206040518083038186803b15801561146e57600080fd5b505afa158015611482573d6000803e3d6000fd5b505050506040513d601f19601f820116820180604052508101906114a6919061398c565b1515146114e8576040517f08c379a00000000000000000000000000000000000000000000000000000000081526004016114df906145fa565b60405180910390fd5b6114f33360016131f8565b3373ffffffffffffffffffffffffffffffffffffffff167fc88b0ced768fe051c9845644d6a9816bf01d50cddf9f724b089e09b022a6733960405160405180910390a2565b60606000611544612f00565b67ffffffffffffffff811115611583577f4e487b7100000000000000000000000000000000000000000000000000000000600052604160045260246000fd5b6040519080825280602002602001820160405280156115bc57816020015b6115a9613731565b8152602001906001900390816115a15790505b50905060005b815181101561162b576115d481611af6565b82828151811061160d577f4e487b7100000000000000000000000000000000000000000000000000000000600052603260045260246000fd5b6020026020010181905250808061162390614c99565b9150506115c2565b508091505090565b61163b613778565b60038281548110611675577f4e487b7100000000000000000000000000000000000000000000000000000000600052603260045260246000fd5b90600052602060002090600602016040518060c00160405290816000820160009054906101000a900473ffffffffffffffffffffffffffffffffffffffff1673ffffffffffffffffffffffffffffffffffffffff1673ffffffffffffffffffffffffffffffffffffffff168152602001600182015481526020016002820154815260200160038201548152602001600482015481526020016005820160009054906101000a900460ff1615151515815250509050919050565b60006002828154811061176a577f4e487b7100000000000000000000000000000000000000000000000000000000600052603260045260246000fd5b906000526020600020906004020160020160009054906101000a900473ffffffffffffffffffffffffffffffffffffffff169050919050565b6000600160008373ffffffffffffffffffffffffffffffffffffffff1673ffffffffffffffffffffffffffffffffffffffff168152602001908152602001600020600301805490509050919050565b6000600160008373ffffffffffffffffffffffffffffffffffffffff1673ffffffffffffffffffffffffffffffffffffffff168152602001908152602001600020600101549050919050565b60046020528160005260406000206020528060005260406000206000915091509054906101000a900460ff1681565b60008061187983612758565b11611885576000611888565b60015b9050919050565b6000600160008373ffffffffffffffffffffffffffffffffffffffff1673ffffffffffffffffffffffffffffffffffffffff16815260200190815260200160002060030160016118de846117a3565b6118e89190614b30565b8154811061191f577f4e487b7100000000000000000000000000000000000000000000000000000000600052603260045260246000fd5b90600052602060002001549050919050565b600042603c61193f84612f0d565b6119499190614a80565b6119539190614b30565b9050919050565b600060038281548110611996577f4e487b7100000000000000000000000000000000000000000000000000000000600052603260045260246000fd5b9060005260206000209060060201600201549050919050565b662386f26fc1000081565b600281565b606060006119cb6111cf565b67ffffffffffffffff811115611a0a577f4e487b7100000000000000000000000000000000000000000000000000000000600052604160045260246000fd5b604051908082528060200260200182016040528015611a4357816020015b611a30613778565b815260200190600190039081611a285790505b509050600080600090505b611a56612246565b811015611aed57611a6681611d39565b158015611a795750611a7781611ec9565b155b15611ada57611a8781611633565b838381518110611ac0577f4e487b7100000000000000000000000000000000000000000000000000000000600052603260045260246000fd5b60200260200101819052508180611ad690614c99565b9250505b8080611ae590614c99565b915050611a4e565b50819250505090565b611afe613731565b60028281548110611b38577f4e487b7100000000000000000000000000000000000000000000000000000000600052603260045260246000fd5b90600052602060002090600402016040518060a0016040529081600082018054611b6190614c36565b80601f0160208091040260200160405190810160405280929190818152602001828054611b8d90614c36565b8015611bda5780601f10611baf57610100808354040283529160200191611bda565b820191906000526020600020905b815481529060010190602001808311611bbd57829003601f168201915b50505050508152602001600182015481526020016002820160009054906101000a900473ffffffffffffffffffffffffffffffffffffffff1673ffffffffffffffffffffffffffffffffffffffff1673ffffffffffffffffffffffffffffffffffffffff1681526020016002820160149054906101000a900460ff161515151581526020016003820154815250509050919050565b600060038281548110611cab577f4e487b7100000000000000000000000000000000000000000000000000000000600052603260045260246000fd5b9060005260206000209060060201600101549050919050565b600060038281548110611d00577f4e487b7100000000000000000000000000000000000000000000000000000000600052603260045260246000fd5b906000526020600020906006020160000160009054906101000a900473ffffffffffffffffffffffffffffffffffffffff169050919050565b6000603c80611d4784612f0d565b611d519190614a80565b611d5b9190614a80565b4210611d68576001611d6b565b60005b9050919050565b3360001515611d808261186d565b151514611dc2576040517f08c379a0000000000000000000000000000000000000000000000000000000008152600401611db99061471a565b60405180910390fd5b611dcb33612e93565b3414611e0c576040517f08c379a0000000000000000000000000000000000000000000000000000000008152600401611e03906146ba565b60405180910390fd5b611e1633346131ad565b3373ffffffffffffffffffffffffffffffffffffffff167fefd7c9549e30eec7d102080b57d7549ea48deaeefd22065d6a803a43c9347d4734604051611e5c91906147d7565b60405180910390a250565b600060028281548110611ea3577f4e487b7100000000000000000000000000000000000000000000000000000000600052603260045260246000fd5b906000526020600020906004020160020160149054906101000a900460ff169050919050565b600060038281548110611f05577f4e487b7100000000000000000000000000000000000000000000000000000000600052603260045260246000fd5b906000526020600020906006020160050160009054906101000a900460ff169050919050565b3360011515611f398261186d565b151514611f7b576040517f08c379a0000000000000000000000000000000000000000000000000000000008152600401611f729061465a565b60405180910390fd5b60008210158015611f925750611f8f612246565b82105b611fd1576040517f08c379a0000000000000000000000000000000000000000000000000000000008152600401611fc8906146fa565b60405180910390fd5b60001515611fde83611ec9565b151514612020576040517f08c379a0000000000000000000000000000000000000000000000000000000008152600401612017906146da565b60405180910390fd5b6001151561202d83611327565b15151461206f576040517f08c379a0000000000000000000000000000000000000000000000000000000008152600401612066906145da565b60405180910390fd5b6000151561207c83611d39565b1515146120be576040517f08c379a00000000000000000000000000000000000000000000000000000000081526004016120b59061461a565b60405180910390fd5b6000806120ca846121f1565b6120d38561195a565b1115612107576120e284611cc4565b91506120ed84612ffc565b90506121026120fb85611c6f565b6001613256565b61211e565b61211084612ffc565b915061211b84611cc4565b90505b612127816132bd565b600061213282612758565b905061213f8260006131ad565b61214a8560016132de565b7f914de1779961324687fb4fc774eae00d58e38b784df4a8a642d8b8d801b67798858484846121788a61195a565b6121818b6121f1565b6040516121939695949392919061481b565b60405180910390a18273ffffffffffffffffffffffffffffffffffffffff166108fc829081150290604051600060405180830381858888f193505050501580156121e1573d6000803e3d6000fd5b505050505050565b600042905090565b60006003828154811061222d577f4e487b7100000000000000000000000000000000000000000000000000000000600052603260045260246000fd5b9060005260206000209060060201600301549050919050565b6000600380549050905090565b33600115156122618261186d565b1515146122a3576040517f08c379a000000000000000000000000000000000000000000000000000000000815260040161229a9061465a565b60405180910390fd5b600082101580156122ba57506122b7612f00565b82105b6122f9576040517f08c379a00000000000000000000000000000000000000000000000000000000081526004016122f0906145ba565b60405180910390fd5b6000151561230683611e67565b151514612348576040517f08c379a000000000000000000000000000000000000000000000000000000000815260040161233f9061445a565b60405180910390fd5b6001151561235d6123588461172e565b61186d565b15151461239f576040517f08c379a00000000000000000000000000000000000000000000000000000000081526004016123969061475a565b60405180910390fd5b3373ffffffffffffffffffffffffffffffffffffffff166123bf8361172e565b73ffffffffffffffffffffffffffffffffffffffff161415612416576040517f08c379a000000000000000000000000000000000000000000000000000000000815260040161240d906144fa565b60405180910390fd5b6000151561242b6124268461172e565b61301b565b15151461246d576040517f08c379a00000000000000000000000000000000000000000000000000000000081526004016124649061455a565b60405180910390fd5b6000151561247a3361301b565b1515146124bc576040517f08c379a00000000000000000000000000000000000000000000000000000000081526004016124b39061449a565b60405180910390fd5b61250c6040518060c001604052803373ffffffffffffffffffffffffffffffffffffffff168152602001848152602001600081526020016000815260200142815260200160001515815250613345565b7f822c40ed11c428cd3221eab3dd1b9778ca8b59c67337a9237a2a90a791b4e6fb823360405161253d9291906147f2565b60405180910390a15050565b60606000612555612246565b67ffffffffffffffff811115612594577f4e487b7100000000000000000000000000000000000000000000000000000000600052604160045260246000fd5b6040519080825280602002602001820160405280156125cd57816020015b6125ba613778565b8152602001906001900390816125b25790505b50905060005b815181101561263c576125e581611633565b82828151811061261e577f4e487b7100000000000000000000000000000000000000000000000000000000600052603260045260246000fd5b6020026020010181905250808061263490614c99565b9150506125d3565b508091505090565b606060028281548110612680577f4e487b7100000000000000000000000000000000000000000000000000000000600052603260045260246000fd5b9060005260206000209060040201600001805461269c90614c36565b80601f01602080910402602001604051908101604052809291908181526020018280546126c890614c36565b80156127155780601f106126ea57610100808354040283529160200191612715565b820191906000526020600020905b8154815290600101906020018083116126f857829003601f168201915b50505050509050919050565b60016020528060005260406000206000915090508060000160009054906101000a900460ff16908060010154908060020154905083565b6000600160008373ffffffffffffffffffffffffffffffffffffffff1673ffffffffffffffffffffffffffffffffffffffff168152602001908152602001600020600201549050919050565b33600115156127b28261186d565b1515146127f4576040517f08c379a00000000000000000000000000000000000000000000000000000000081526004016127eb9061465a565b60405180910390fd5b6000825111612838576040517f08c379a000000000000000000000000000000000000000000000000000000000815260040161282f9061453a565b60405180910390fd5b6000612843336117a3565b11156128a1576001151561285e6128593361188f565b6112cb565b1515146128a0576040517f08c379a00000000000000000000000000000000000000000000000000000000081526004016128979061463a565b60405180910390fd5b5b60006128ab612f00565b90506128f66040518060a00160405280858152602001600081526020013373ffffffffffffffffffffffffffffffffffffffff16815260200160001515815260200142815250613405565b61290033826134ce565b7fb4af4b9562ae3030a4905c2c59e4d1a62b4e502925d1c337efa53dca6127d5478184334260405161293594939291906148b3565b60405180910390a1505050565b603c81565b6003818154811061295757600080fd5b90600052602060002090600602016000915090508060000160009054906101000a900473ffffffffffffffffffffffffffffffffffffffff16908060010154908060020154908060030154908060040154908060050160009054906101000a900460ff16905086565b33600115156129ce8261186d565b151514612a10576040517f08c379a0000000000000000000000000000000000000000000000000000000008152600401612a079061465a565b60405180910390fd5b60008310158015612a275750612a24612246565b83105b612a66576040517f08c379a0000000000000000000000000000000000000000000000000000000008152600401612a5d906146fa565b60405180910390fd5b60001515612a7384611327565b151514612ab5576040517f08c379a0000000000000000000000000000000000000000000000000000000008152600401612aac9061477a565b60405180910390fd5b3373ffffffffffffffffffffffffffffffffffffffff16612ad584612ffc565b73ffffffffffffffffffffffffffffffffffffffff161415612b2c576040517f08c379a0000000000000000000000000000000000000000000000000000000008152600401612b239061447a565b60405180910390fd5b3373ffffffffffffffffffffffffffffffffffffffff16612b4c84611cc4565b73ffffffffffffffffffffffffffffffffffffffff161415612ba3576040517f08c379a0000000000000000000000000000000000000000000000000000000008152600401612b9a9061467a565b60405180910390fd5b60001515612bb1843361122f565b151514612bf3576040517f08c379a0000000000000000000000000000000000000000000000000000000008152600401612bea9061473a565b60405180910390fd5b612bfd833361353b565b600115158215151415612c1857612c13836135a8565b612c22565b612c21836135c9565b5b7ff2913dbe661ee2acc4a046d8fbcdc792373bda34c41c6086484b5345e5785e5f833384604051612c559392919061487c565b60405180910390a1505050565b60008110158015612c795750612c76612f00565b81105b612cb8576040517f08c379a0000000000000000000000000000000000000000000000000000000008152600401612caf906145ba565b60405180910390fd5b60001515612cc582611e67565b151514612d07576040517f08c379a0000000000000000000000000000000000000000000000000000000008152600401612cfe9061469a565b60405180910390fd5b3373ffffffffffffffffffffffffffffffffffffffff16612d278261172e565b73ffffffffffffffffffffffffffffffffffffffff161415612d7e576040517f08c379a0000000000000000000000000000000000000000000000000000000008152600401612d75906144da565b60405180910390fd5b60011515612d93612d8e8361172e565b61186d565b151514612dd5576040517f08c379a0000000000000000000000000000000000000000000000000000000008152600401612dcc9061457a565b60405180910390fd5b612df28134612de384611355565b612ded9190614a80565b6135ea565b7f0d3d91965e845d821f1b7706298a588e5b98b323b3ac68e03c37958294fb2ac58134612e1e84611355565b612e278561172e565b33604051612e399594939291906148ff565b60405180910390a1612e4a8161172e565b73ffffffffffffffffffffffffffffffffffffffff166108fc349081150290604051600060405180830381858888f19350505050158015612e8f573d6000803e3d6000fd5b5050565b60008060011515612ea384610eb3565b151514612eb85767016345785d8a0000612ec1565b662386f26fc100005b90506000612ece846117f2565b1115612ef7576002612edf846117f2565b612ee99190614ad6565b81612ef49190614ad6565b90505b80915050919050565b6000600280549050905090565b600060038281548110612f49577f4e487b7100000000000000000000000000000000000000000000000000000000600052603260045260246000fd5b9060005260206000209060060201600401549050919050565b6060600160008373ffffffffffffffffffffffffffffffffffffffff1673ffffffffffffffffffffffffffffffffffffffff168152602001908152602001600020600301805480602002602001604051908101604052809291908181526020018280548015612ff057602002820191906000526020600020905b815481526020019060010190808311612fdc575b50505050509050919050565b600061300f61300a83611c6f565b61172e565b9050919050565b603c81565b6000806130266119bf565b905060005b815181101561314c578373ffffffffffffffffffffffffffffffffffffffff16613098838381518110613087577f4e487b7100000000000000000000000000000000000000000000000000000000600052603260045260246000fd5b60200260200101516020015161172e565b73ffffffffffffffffffffffffffffffffffffffff16148061312957508373ffffffffffffffffffffffffffffffffffffffff16828281518110613105577f4e487b7100000000000000000000000000000000000000000000000000000000600052603260045260246000fd5b60200260200101516000015173ffffffffffffffffffffffffffffffffffffffff16145b1561313957600192505050613153565b808061314490614c99565b91505061302b565b5060009150505b919050565b600060028281548110613194577f4e487b7100000000000000000000000000000000000000000000000000000000600052603260045260246000fd5b9060005260206000209060040201600301549050919050565b80600160008473ffffffffffffffffffffffffffffffffffffffff1673ffffffffffffffffffffffffffffffffffffffff168152602001908152602001600020600201819055505050565b80600160008473ffffffffffffffffffffffffffffffffffffffff1673ffffffffffffffffffffffffffffffffffffffff16815260200190815260200160002060000160006101000a81548160ff0219169083151502179055505050565b8060028381548110613291577f4e487b7100000000000000000000000000000000000000000000000000000000600052603260045260246000fd5b906000526020600020906004020160020160146101000a81548160ff0219169083151502179055505050565b6132db8160016132cc846117f2565b6132d69190614a80565b61363e565b50565b8060038381548110613319577f4e487b7100000000000000000000000000000000000000000000000000000000600052603260045260246000fd5b906000526020600020906006020160050160006101000a81548160ff0219169083151502179055505050565b600381908060018154018082558091505060019003906000526020600020906006020160009091909190915060008201518160000160006101000a81548173ffffffffffffffffffffffffffffffffffffffff021916908373ffffffffffffffffffffffffffffffffffffffff1602179055506020820151816001015560408201518160020155606082015181600301556080820151816004015560a08201518160050160006101000a81548160ff021916908315150217905550505050565b6002819080600181540180825580915050600190039060005260206000209060040201600090919091909150600082015181600001908051906020019061344d9291906137c6565b506020820151816001015560408201518160020160006101000a81548173ffffffffffffffffffffffffffffffffffffffff021916908373ffffffffffffffffffffffffffffffffffffffff16021790555060608201518160020160146101000a81548160ff02191690831515021790555060808201518160030155505050565b600160008373ffffffffffffffffffffffffffffffffffffffff1673ffffffffffffffffffffffffffffffffffffffff1681526020019081526020016000206003018190806001815401808255809150506001900390600052602060002001600090919091909150555050565b60016004600084815260200190815260200160002060008373ffffffffffffffffffffffffffffffffffffffff1673ffffffffffffffffffffffffffffffffffffffff16815260200190815260200160002060006101000a81548160ff0219169083151502179055505050565b6135c68160016135b78461195a565b6135c19190614a80565b613689565b50565b6135e78160016135d8846121f1565b6135e29190614a80565b6136dd565b50565b8060028381548110613625577f4e487b7100000000000000000000000000000000000000000000000000000000600052603260045260246000fd5b9060005260206000209060040201600101819055505050565b80600160008473ffffffffffffffffffffffffffffffffffffffff1673ffffffffffffffffffffffffffffffffffffffff168152602001908152602001600020600101819055505050565b80600383815481106136c4577f4e487b7100000000000000000000000000000000000000000000000000000000600052603260045260246000fd5b9060005260206000209060060201600201819055505050565b8060038381548110613718577f4e487b7100000000000000000000000000000000000000000000000000000000600052603260045260246000fd5b9060005260206000209060060201600301819055505050565b6040518060a001604052806060815260200160008152602001600073ffffffffffffffffffffffffffffffffffffffff168152602001600015158152602001600081525090565b6040518060c00160405280600073ffffffffffffffffffffffffffffffffffffffff168152602001600081526020016000815260200160008152602001600081526020016000151581525090565b8280546137d290614c36565b90600052602060002090601f0160209004810192826137f4576000855561383b565b82601f1061380d57805160ff191683800117855561383b565b8280016001018555821561383b579182015b8281111561383a57825182559160200191906001019061381f565b5b509050613848919061384c565b5090565b5b8082111561386557600081600090555060010161384d565b5090565b600061387c61387784614977565b614952565b90508281526020810184848401111561389457600080fd5b61389f848285614bf4565b509392505050565b6000813590506138b68161540a565b92915050565b6000813590506138cb81615421565b92915050565b6000813590506138e081615438565b92915050565b6000815190506138f581615438565b92915050565b600082601f83011261390c57600080fd5b813561391c848260208601613869565b91505092915050565b6000813590506139348161544f565b92915050565b60006020828403121561394c57600080fd5b600061395a848285016138a7565b91505092915050565b60006020828403121561397557600080fd5b6000613983848285016138bc565b91505092915050565b60006020828403121561399e57600080fd5b60006139ac848285016138e6565b91505092915050565b6000602082840312156139c757600080fd5b600082013567ffffffffffffffff8111156139e157600080fd5b6139ed848285016138fb565b91505092915050565b600060208284031215613a0857600080fd5b6000613a1684828501613925565b91505092915050565b60008060408385031215613a3257600080fd5b6000613a4085828601613925565b9250506020613a51858286016138a7565b9150509250929050565b60008060408385031215613a6e57600080fd5b6000613a7c85828601613925565b9250506020613a8d858286016138d1565b9150509250929050565b6000613aa38383614066565b905092915050565b6000613ab78383614152565b60c08301905092915050565b6000613acf8383614248565b60208301905092915050565b613ae481614bbe565b82525050565b613af381614b76565b82525050565b613b0281614b76565b82525050565b613b1181614b64565b82525050565b6000613b22826149d8565b613b2c8185614a2b565b935083602082028501613b3e856149a8565b8060005b85811015613b7a5784840389528151613b5b8582613a97565b9450613b6683614a04565b925060208a01995050600181019050613b42565b50829750879550505050505092915050565b6000613b97826149e3565b613ba18185614a3c565b9350613bac836149b8565b8060005b83811015613bdd578151613bc48882613aab565b9750613bcf83614a11565b925050600181019050613bb0565b5085935050505092915050565b6000613bf5826149ee565b613bff8185614a4d565b9350613c0a836149c8565b8060005b83811015613c3b578151613c228882613ac3565b9750613c2d83614a1e565b925050600181019050613c0e565b5085935050505092915050565b613c5181614b88565b82525050565b613c6081614b88565b82525050565b6000613c71826149f9565b613c7b8185614a5e565b9350613c8b818560208601614c03565b613c9481614d6f565b840191505092915050565b6000613caa826149f9565b613cb48185614a6f565b9350613cc4818560208601614c03565b613ccd81614d6f565b840191505092915050565b6000613ce5602183614a6f565b9150613cf082614d80565b604082019050919050565b6000613d08602383614a6f565b9150613d1382614dcf565b604082019050919050565b6000613d2b603583614a6f565b9150613d3682614e1e565b604082019050919050565b6000613d4e604883614a6f565b9150613d5982614e6d565b606082019050919050565b6000613d71601983614a6f565b9150613d7c82614ee2565b602082019050919050565b6000613d94601c83614a6f565b9150613d9f82614f0b565b602082019050919050565b6000613db7602283614a6f565b9150613dc282614f34565b604082019050919050565b6000613dda601a83614a6f565b9150613de582614f83565b602082019050919050565b6000613dfd605583614a6f565b9150613e0882614fac565b606082019050919050565b6000613e20602d83614a6f565b9150613e2b82615021565b604082019050919050565b6000613e43602f83614a6f565b9150613e4e82615070565b604082019050919050565b6000613e66601083614a6f565b9150613e71826150bf565b602082019050919050565b6000613e89602183614a6f565b9150613e94826150e8565b604082019050919050565b6000613eac603d83614a6f565b9150613eb782615137565b604082019050919050565b6000613ecf601983614a6f565b9150613eda82615186565b602082019050919050565b6000613ef2604283614a6f565b9150613efd826151af565b606082019050919050565b6000613f15601383614a6f565b9150613f2082615224565b602082019050919050565b6000613f38602483614a6f565b9150613f438261524d565b604082019050919050565b6000613f5b601e83614a6f565b9150613f668261529c565b602082019050919050565b6000613f7e601b83614a6f565b9150613f89826152c5565b602082019050919050565b6000613fa1601883614a6f565b9150613fac826152ee565b602082019050919050565b6000613fc4601283614a6f565b9150613fcf82615317565b602082019050919050565b6000613fe7601a83614a6f565b9150613ff282615340565b602082019050919050565b600061400a601283614a6f565b915061401582615369565b602082019050919050565b600061402d603083614a6f565b915061403882615392565b604082019050919050565b6000614050601583614a6f565b915061405b826153e1565b602082019050919050565b600060a08301600083015184820360008601526140838282613c66565b91505060208301516140986020860182614248565b5060408301516140ab6040860182613aea565b5060608301516140be6060860182613c48565b5060808301516140d16080860182614248565b508091505092915050565b600060a08301600083015184820360008601526140f98282613c66565b915050602083015161410e6020860182614248565b5060408301516141216040860182613aea565b5060608301516141346060860182613c48565b5060808301516141476080860182614248565b508091505092915050565b60c0820160008201516141686000850182613aea565b50602082015161417b6020850182614248565b50604082015161418e6040850182614248565b5060608201516141a16060850182614248565b5060808201516141b46080850182614248565b5060a08201516141c760a0850182613c48565b50505050565b60c0820160008201516141e36000850182613aea565b5060208201516141f66020850182614248565b5060408201516142096040850182614248565b50606082015161421c6060850182614248565b50608082015161422f6080850182614248565b5060a082015161424260a0850182613c48565b50505050565b61425181614bb4565b82525050565b61426081614bb4565b82525050565b600060208201905061427b6000830184613b08565b92915050565b60006020820190506142966000830184613af9565b92915050565b60006040820190506142b16000830185613adb565b6142be6020830184614257565b9392505050565b600060c0820190506142da6000830189613af9565b6142e76020830188614257565b6142f46040830187614257565b6143016060830186614257565b61430e6080830185614257565b61431b60a0830184613c57565b979650505050505050565b600060208201905081810360008301526143408184613b17565b905092915050565b600060208201905081810360008301526143628184613b8c565b905092915050565b600060208201905081810360008301526143848184613bea565b905092915050565b60006020820190506143a16000830184613c57565b92915050565b60006060820190506143bc6000830186613c57565b6143c96020830185614257565b6143d66040830184614257565b949350505050565b600060208201905081810360008301526143f88184613c9f565b905092915050565b600060a082019050818103600083015261441a8188613c9f565b90506144296020830187614257565b6144366040830186613af9565b6144436060830185613c57565b6144506080830184614257565b9695505050505050565b6000602082019050818103600083015261447381613cd8565b9050919050565b6000602082019050818103600083015261449381613cfb565b9050919050565b600060208201905081810360008301526144b381613d1e565b9050919050565b600060208201905081810360008301526144d381613d41565b9050919050565b600060208201905081810360008301526144f381613d64565b9050919050565b6000602082019050818103600083015261451381613d87565b9050919050565b6000602082019050818103600083015261453381613daa565b9050919050565b6000602082019050818103600083015261455381613dcd565b9050919050565b6000602082019050818103600083015261457381613df0565b9050919050565b6000602082019050818103600083015261459381613e13565b9050919050565b600060208201905081810360008301526145b381613e36565b9050919050565b600060208201905081810360008301526145d381613e59565b9050919050565b600060208201905081810360008301526145f381613e7c565b9050919050565b6000602082019050818103600083015261461381613e9f565b9050919050565b6000602082019050818103600083015261463381613ec2565b9050919050565b6000602082019050818103600083015261465381613ee5565b9050919050565b6000602082019050818103600083015261467381613f08565b9050919050565b6000602082019050818103600083015261469381613f2b565b9050919050565b600060208201905081810360008301526146b381613f4e565b9050919050565b600060208201905081810360008301526146d381613f71565b9050919050565b600060208201905081810360008301526146f381613f94565b9050919050565b6000602082019050818103600083015261471381613fb7565b9050919050565b6000602082019050818103600083015261473381613fda565b9050919050565b6000602082019050818103600083015261475381613ffd565b9050919050565b6000602082019050818103600083015261477381614020565b9050919050565b6000602082019050818103600083015261479381614043565b9050919050565b600060208201905081810360008301526147b481846140dc565b905092915050565b600060c0820190506147d160008301846141cd565b92915050565b60006020820190506147ec6000830184614257565b92915050565b60006040820190506148076000830185614257565b6148146020830184613af9565b9392505050565b600060c0820190506148306000830189614257565b61483d6020830188613af9565b61484a6040830187613af9565b6148576060830186614257565b6148646080830185614257565b61487160a0830184614257565b979650505050505050565b60006060820190506148916000830186614257565b61489e6020830185613b08565b6148ab6040830184613c57565b949350505050565b60006080820190506148c86000830187614257565b81810360208301526148da8186613c9f565b90506148e96040830185613af9565b6148f66060830184614257565b95945050505050565b600060a0820190506149146000830188614257565b6149216020830187614257565b61492e6040830186614257565b61493b6060830185613af9565b6149486080830184613b08565b9695505050505050565b600061495c61496d565b90506149688282614c68565b919050565b6000604051905090565b600067ffffffffffffffff82111561499257614991614d40565b5b61499b82614d6f565b9050602081019050919050565b6000819050602082019050919050565b6000819050602082019050919050565b6000819050602082019050919050565b600081519050919050565b600081519050919050565b600081519050919050565b600081519050919050565b6000602082019050919050565b6000602082019050919050565b6000602082019050919050565b600082825260208201905092915050565b600082825260208201905092915050565b600082825260208201905092915050565b600082825260208201905092915050565b600082825260208201905092915050565b6000614a8b82614bb4565b9150614a9683614bb4565b9250827fffffffffffffffffffffffffffffffffffffffffffffffffffffffffffffffff03821115614acb57614aca614ce2565b5b828201905092915050565b6000614ae182614bb4565b9150614aec83614bb4565b9250817fffffffffffffffffffffffffffffffffffffffffffffffffffffffffffffffff0483118215151615614b2557614b24614ce2565b5b828202905092915050565b6000614b3b82614bb4565b9150614b4683614bb4565b925082821015614b5957614b58614ce2565b5b828203905092915050565b6000614b6f82614b94565b9050919050565b6000614b8182614b94565b9050919050565b60008115159050919050565b600073ffffffffffffffffffffffffffffffffffffffff82169050919050565b6000819050919050565b6000614bc982614bd0565b9050919050565b6000614bdb82614be2565b9050919050565b6000614bed82614b94565b9050919050565b82818337600083830152505050565b60005b83811015614c21578082015181840152602081019050614c06565b83811115614c30576000848401525b50505050565b60006002820490506001821680614c4e57607f821691505b60208210811415614c6257614c61614d11565b5b50919050565b614c7182614d6f565b810181811067ffffffffffffffff82111715614c9057614c8f614d40565b5b80604052505050565b6000614ca482614bb4565b91507fffffffffffffffffffffffffffffffffffffffffffffffffffffffffffffffff821415614cd757614cd6614ce2565b5b600182019050919050565b7f4e487b7100000000000000000000000000000000000000000000000000000000600052601160045260246000fd5b7f4e487b7100000000000000000000000000000000000000000000000000000000600052602260045260246000fd5b7f4e487b7100000000000000000000000000000000000000000000000000000000600052604160045260246000fd5b6000601f19601f8301169050919050565b7f596f752063616e2774207265706f727420612064697361626c656420706f737460008201527f2100000000000000000000000000000000000000000000000000000000000000602082015250565b7f43616e6e6f7420766f74652073696e636520796f7520617265207265706f727460008201527f6564210000000000000000000000000000000000000000000000000000000000602082015250565b7f596f752061726520616c726561647920696e766f6c76656420696e206120637560008201527f7272656e74207265706f72742073657373696f6e210000000000000000000000602082015250565b7f4c61737420706f73742074696d656f757420686173206e6f742079657420656e60008201527f64656420696e206f7264657220746f206465616374697661746520796f75722060208201527f6163636f756e7421000000000000000000000000000000000000000000000000604082015250565b7f43616e6e6f742074697020796f7572206f776e20706f73742100000000000000600082015250565b7f43616e6e6f74207265706f727420796f7572206f776e20706f73742100000000600082015250565b7f596f757220616464726573732077617320616c7265616479207665726966696560008201527f6421000000000000000000000000000000000000000000000000000000000000602082015250565b7f43616e6e6f74207061737320616e20656d707479206861736821000000000000600082015250565b7f546865207573657220796f752061726520696e74656e64696e6720746f20726560008201527f706f727420697320616c726561647920696e766f6c76656420696e206120637560208201527f7272656e74207265706f72742073657373696f6e210000000000000000000000604082015250565b7f546865207573657220796f752061726520747279696e6720746f20746970206960008201527f73206e6f74206163746976652100000000000000000000000000000000000000602082015250565b7f596f75206172652063757272656e746c7920696e766f6c76656420696e20612060008201527f7265706f72742073657373696f6e210000000000000000000000000000000000602082015250565b7f496e76616c696420706f73742069642100000000000000000000000000000000600082015250565b7f566f74696e672073657373696f6e20686173206e6f7420656e6465642079657460008201527f2100000000000000000000000000000000000000000000000000000000000000602082015250565b7f596f75722061646472657373206973206e6f742076657269666965642062792060008201527f7468652050726f6f66204f662048756d616e6974792073797374656d21000000602082015250565b7f57696e6e65722072657665616c2074696d6520656e6465642100000000000000600082015250565b7f4c61737420706f73742074696d656f757420686173206e6f742079657420656e60008201527f64656420696e206f7264657220746f2075706c6f61642061206e657720706f7360208201527f7421000000000000000000000000000000000000000000000000000000000000604082015250565b7f4163636f756e74206e6f74206163746976652100000000000000000000000000600082015250565b7f43616e6e6f7420766f74652073696e636520796f7520617265207265706f727460008201527f696e672100000000000000000000000000000000000000000000000000000000602082015250565b7f596f752063616e27742074697020612064697361626c656420706f7374210000600082015250565b7f506c656173652073656e6420612076616c696420616d6f756e74210000000000600082015250565b7f5265706f727420616c72656164792066696e6973686564210000000000000000600082015250565b7f496e76616c6964207265706f7274206964210000000000000000000000000000600082015250565b7f4163636f756e7420697320616c72656164792061637469766521000000000000600082015250565b7f596f7520616c726561647920766f746564210000000000000000000000000000600082015250565b7f546865207573657220796f752061726520747279696e6720746f207265706f7260008201527f74206973206e6f74206163746976652100000000000000000000000000000000602082015250565b7f566f74696e672073657373696f6e20656e646564210000000000000000000000600082015250565b61541381614b64565b811461541e57600080fd5b50565b61542a81614b76565b811461543557600080fd5b50565b61544181614b88565b811461544c57600080fd5b50565b61545881614bb4565b811461546357600080fd5b5056fea2646970667358221220dd30594762bf363fa42394ffbd156f1dcf0d1907082b62b6cd6a15dda64af10264736f6c63430008020033",
  "immutableReferences": {},
  "source": "// SPDX-License-Identifier: MIT\r\npragma solidity ^0.8.0;\r\n\r\ninterface IProofOfHumanity {\r\n  function isRegistered(address _user) external view returns (bool);\r\n  function addRegistration(address _user) external;\r\n}\r\n\r\ncontract FreeSpeech {\r\n\r\n  // Contract reference\r\n  IProofOfHumanity proofOfHumanity;\r\n\r\n  // Events\r\n  event AccountDeactivated(address indexed _user, address _beneficiary, uint _pricePaid);\r\n  event AccountActivated(address indexed _user, uint _pricePaid);\r\n  event AccountVerified(address indexed _user);\r\n  event PostCreated(uint _id, string _ipfsHash, address payable _author, uint _timestamp);\r\n  event PostTipped(uint _id, uint _tip, uint _tipAmount, address payable _author, address _by);\r\n  event Voted(uint _reportId, address _user, bool _upVote);\r\n  event Reported(uint _postId, address payable _by);\r\n  event ReportWinner(uint _reportId, address payable _winner, address payable _loser, uint _amountWon, uint _upVoteCount, uint _downVoteCount);\r\n\r\n  // Constants\r\n  uint public constant basePriceForUnverifiedUser = 0.1 ether;\r\n  uint public constant basePriceForVerifiedUser = 0.01 ether; \r\n  uint public constant penaltyFactor = 2;\r\n  uint public constant POST_CREATION_TIMEOUT = 1 minutes;\r\n  uint public constant REPORT_VOTING_TIME = 1 minutes;\r\n  uint public constant REPORT_CHECK_WINNER_TIME = 1 minutes;\r\n\r\n  // User logic\r\n  struct User {\r\n    bool isVerified;\r\n    uint penaltyCount;\r\n    uint pricePaid;\r\n    uint[] postOwner;\r\n  }\r\n  mapping (address => User) public users;\r\n\r\n  // Post logic\r\n  struct Post {\r\n    string ipfsHash;\r\n    uint tipAmount;\r\n    address payable author;\r\n    bool isDisabled;\r\n    uint timestamp;\r\n  }\r\n  Post[] public posts;\r\n\r\n  // Report logic\r\n  struct Report {\r\n    address payable userReporting;\r\n    uint postId;\r\n    uint upVotes;\r\n    uint downVotes;\r\n    uint timestamp;\r\n    bool isFinished;\r\n  }\r\n  Report[] public reports;\r\n  // Mapping report index to a mapping that checks if address voted\r\n  mapping(uint => mapping(address => bool)) public voted;\r\n\r\n  constructor (address _proofOfHumanity) {\r\n    proofOfHumanity = IProofOfHumanity(_proofOfHumanity);\r\n  }\r\n\r\n  /***************************************************************************/\r\n  /*************************** GETTERS & SETTERS *****************************/\r\n  /***************************************************************************/\r\n\r\n  function getUserIsVerified(address _user) public view returns (bool) {\r\n    return users[_user].isVerified;\r\n  }\r\n\r\n  function setUserIsVerified(address _user, bool _isVerified) private {\r\n    users[_user].isVerified = _isVerified;\r\n  }\r\n\r\n  function getUserPenaltyCount(address _user) public view returns (uint) {\r\n    return users[_user].penaltyCount;\r\n  }\r\n\r\n  function setUserPenaltyCount(address _user, uint _penaltyCount) private {\r\n    users[_user].penaltyCount = _penaltyCount;\r\n  }\r\n\r\n  function getUserPricePaid(address _user) public view returns (uint) {\r\n    return users[_user].pricePaid;\r\n  }\r\n\r\n  function setUserPricePaid(address _user, uint _pricePaid) private {\r\n    users[_user].pricePaid = _pricePaid;\r\n  }\r\n\r\n  function getUserPostOwnerLength(address _user) public view returns (uint) {\r\n    return users[_user].postOwner.length;\r\n  }\r\n\r\n  function getUserPostOwner(address _user) public view returns (uint[] memory) {\r\n    return users[_user].postOwner;\r\n  }\r\n\r\n  function addPostOwner(address _user, uint _postId) private {\r\n    users[_user].postOwner.push(_postId);\r\n  }\r\n\r\n  function getPostById (uint _id) public view returns (Post memory) {\r\n    return posts[_id];\r\n  }\r\n\r\n  function getUserLastPostId(address _user) public view returns (uint) {\r\n    return users[_user].postOwner[getUserPostOwnerLength(_user) - 1];\r\n  }\r\n\r\n  function getPostIPFSHash(uint _id) public view returns (string memory) {\r\n    return posts[_id].ipfsHash;\r\n  }\r\n\r\n  function getPostTipAmount(uint _id) public view returns (uint) {\r\n    return posts[_id].tipAmount;\r\n  }\r\n\r\n  function setPostTipAmount(uint _id, uint _tipAmount) private {\r\n    posts[_id].tipAmount = _tipAmount;\r\n  }\r\n\r\n  function getPostAuthor(uint _id) public view returns (address payable) {\r\n    return posts[_id].author;\r\n  }\r\n\r\n  function getPostIsDisabled(uint _id) public view returns (bool) {\r\n    return posts[_id].isDisabled;\r\n  }\r\n\r\n  function setPostIsDisabled(uint _id, bool _isDisabled) private {\r\n    posts[_id].isDisabled = _isDisabled;\r\n  }\r\n\r\n  function getPostTimestamp(uint _id) public view returns (uint) {\r\n    return posts[_id].timestamp;\r\n  }\r\n\r\n  function getPostsLength () public view returns (uint) {\r\n    return posts.length;\r\n  }\r\n\r\n  function getPosts () public view returns (Post[] memory) {\r\n    Post[] memory _posts = new Post[](getPostsLength());\r\n    for (uint i = 0; i < _posts.length; i++) {\r\n        _posts[i] = getPostById(i);\r\n    }\r\n\r\n    return _posts;\r\n  }\r\n\r\n  function addPost (Post memory _post) private {\r\n    posts.push(_post);\r\n  }\r\n\r\n  function addReport (Report memory _report) private {\r\n    reports.push(_report);\r\n  }\r\n\r\n  function userAlreadyVoted (uint _id, address _user) public view returns (bool) {\r\n    return voted[_id][_user];\r\n  }\r\n\r\n  function setUserVoted (uint _id, address _user) private {\r\n    voted[_id][_user] = true;\r\n  }\r\n\r\n  function getReportById (uint _id) public view returns (Report memory) {\r\n    return reports[_id];\r\n  }\r\n\r\n  function getReportUserReporting(uint _id) public view returns (address payable) {\r\n    return reports[_id].userReporting;\r\n  }\r\n\r\n  function getReportUserReported(uint _id) public view returns (address payable) {\r\n    return getPostAuthor(getReportPostId(_id));\r\n  }\r\n\r\n  function getReportPostId(uint _id) public view returns (uint) {\r\n    return reports[_id].postId;\r\n  }\r\n\r\n  function getReportIsFinished(uint _id) public view returns (bool) {\r\n    return reports[_id].isFinished;\r\n  }\r\n\r\n  function setReportIsFinished(uint _id, bool _isFinished) private {\r\n    reports[_id].isFinished = _isFinished;\r\n  }\r\n\r\n  function getReportUpVotes(uint _id) public view returns (uint) {\r\n    return reports[_id].upVotes;\r\n  }\r\n\r\n  function setReportUpVotes(uint _id, uint _upVotes) private {\r\n    reports[_id].upVotes = _upVotes;\r\n  }\r\n\r\n  function getReportDownVotes(uint _id) public view returns (uint) {\r\n    return reports[_id].downVotes;\r\n  }\r\n\r\n  function setReportDownVotes(uint _id, uint _downVotes) private {\r\n    reports[_id].downVotes = _downVotes;\r\n  }\r\n\r\n  function getReportTimestamp(uint _id) public view returns (uint) {\r\n    return reports[_id].timestamp;\r\n  }\r\n\r\n  function getReportsLength () public view returns (uint) {\r\n    return reports.length;\r\n  }\r\n\r\n  function getCurrentReportsLength () public view returns (uint) {\r\n    uint counter;\r\n\r\n    for (uint i = 0; i < getReportsLength(); i++) {\r\n      if (!checkReportWinnerTimeEnded(i) && !getReportIsFinished(i)) {\r\n        counter++;\r\n      }\r\n    }\r\n\r\n    return counter;\r\n  }\r\n\r\n  function getReports () public view returns (Report[] memory) {\r\n    Report[] memory _reports = new Report[](getReportsLength());\r\n    for (uint i = 0; i < _reports.length; i++) {\r\n        _reports[i] = getReportById(i);\r\n    }\r\n\r\n    return _reports;\r\n  }\r\n\r\n  function getCurrentReports () public view returns (Report[] memory) {\r\n    Report[] memory _reports = new Report[](getCurrentReportsLength());\r\n    uint k;\r\n\r\n    for (uint i = 0; i < getReportsLength(); i++) {\r\n      if (!checkReportWinnerTimeEnded(i) && !getReportIsFinished(i)) {\r\n        _reports[k] = getReportById(i);\r\n        k++;\r\n      }\r\n    }\r\n\r\n    return _reports;\r\n  }\r\n\r\n  function checkUserIsInvolvedInACurrentReport (address _user) public view returns (bool) {\r\n    Report[] memory _reports = getCurrentReports();\r\n    for (uint i = 0; i < _reports.length; i++) {\r\n      if (getPostAuthor(_reports[i].postId) == _user || _reports[i].userReporting == _user) {\r\n        return true;\r\n      }\r\n    }\r\n    return false;\r\n  }\r\n\r\n  /*************************************************************************/\r\n  /*************************** UTILS FUNCTIONS *****************************/\r\n  /*************************************************************************/\r\n\r\n  function getAccountActivationPrice (address _user) public view returns (uint) {\r\n    uint _price;\r\n\r\n    _price = getUserIsVerified(_user) == true ? basePriceForVerifiedUser : basePriceForUnverifiedUser;\r\n\r\n    if (getUserPenaltyCount(_user) > 0) {\r\n      _price *= getUserPenaltyCount(_user) * penaltyFactor;\r\n    }\r\n\r\n    return _price;\r\n  }\r\n\r\n  function hasActiveAccount (address _user) public view returns (bool) {\r\n    return getUserPricePaid(_user) > 0 ? true : false;\r\n  }\r\n\r\n  function checkPostTimeoutEnded (uint _id) public view returns (bool) {\r\n    return block.timestamp < getPostTimestamp(_id) + POST_CREATION_TIMEOUT ? false : true;\r\n  }\r\n\r\n  function getBlockTimestamp () public view returns (uint) {\r\n    return block.timestamp;\r\n  }\r\n\r\n  function getPostTimeoutLeft (uint _id) public view returns (uint) {\r\n    return getPostTimestamp(_id) + POST_CREATION_TIMEOUT -  block.timestamp;\r\n  }\r\n\r\n  function checkReportVotingTimeEnded (uint _id) public view returns (bool) {\r\n    return block.timestamp < getReportTimestamp(_id) + REPORT_VOTING_TIME ? false : true;\r\n  }\r\n\r\n  function getReportVotingTimeLeft (uint _id) public view returns (uint) {\r\n    return getReportTimestamp(_id) + REPORT_VOTING_TIME -  block.timestamp;\r\n  }\r\n\r\n  function checkReportWinnerTimeEnded (uint _id) public view returns (bool) {\r\n    return block.timestamp < getReportTimestamp(_id) + REPORT_VOTING_TIME + REPORT_CHECK_WINNER_TIME ? false : true;\r\n  }\r\n\r\n  function getReportWinnerTimeLeft (uint _id) public view returns (uint) {\r\n    return getReportTimestamp(_id) + REPORT_VOTING_TIME + REPORT_CHECK_WINNER_TIME -  block.timestamp;\r\n  }\r\n\r\n  function incrementUserPenaltyCount (address _user) private {\r\n    setUserPenaltyCount(_user, getUserPenaltyCount(_user) + 1);\r\n  }\r\n\r\n  function incrementReportUpVotes (uint _id) private {\r\n    setReportUpVotes(_id, getReportUpVotes(_id) + 1);\r\n  }\r\n\r\n  function incrementReportDownVotes (uint _id) private {\r\n    setReportDownVotes(_id, getReportDownVotes(_id) + 1);\r\n  }\r\n\r\n  /*****************************************************************/\r\n  /*************************** MODIFIERS ***************************/\r\n  /*****************************************************************/\r\n\r\n  modifier userHasActiveAccount (address _user) {\r\n    require(hasActiveAccount(_user) == true, \"Account not active!\");\r\n    _;\r\n  }\r\n\r\n  modifier userHasNotActiveAccount (address _user) {\r\n    require(hasActiveAccount(_user) == false, \"Account is already active!\");\r\n    _;\r\n  }\r\n\r\n  /**************************************************************************/\r\n  /*************************** EXTERNAL FUNCTIONS ***************************/\r\n  /**************************************************************************/\r\n\r\n  function getVerified () external {\r\n    require(getUserIsVerified(msg.sender) == false, \"Your address was already verified!\");\r\n    require(proofOfHumanity.isRegistered(msg.sender) == true, \"Your address is not verified by the Proof Of Humanity system!\");\r\n    setUserIsVerified(msg.sender, true);\r\n    emit AccountVerified(msg.sender);\r\n  }\r\n\r\n  function activateAccount() external payable userHasNotActiveAccount(msg.sender) {\r\n    require(msg.value == getAccountActivationPrice(msg.sender), \"Please send a valid amount!\");\r\n    setUserPricePaid(msg.sender, msg.value);\r\n    emit AccountActivated(msg.sender, msg.value);\r\n  }\r\n\r\n  function deactivateAccount(address payable _to) external userHasActiveAccount(msg.sender) {\r\n    if (getUserPostOwnerLength(msg.sender) > 0) {\r\n      require(checkPostTimeoutEnded(getUserLastPostId(msg.sender)) == true,\r\n      \"Last post timeout has not yet ended in order to deactivate your account!\");\r\n    }\r\n\r\n    require(checkUserIsInvolvedInACurrentReport(msg.sender) == false, \"You are currently involved in a report session!\");\r\n\r\n    uint _pricePaid = getUserPricePaid(msg.sender);\r\n    setUserPricePaid(msg.sender, 0);\r\n    \r\n    emit AccountDeactivated(msg.sender, _to, _pricePaid);\r\n    _to.transfer(_pricePaid);\r\n  }\r\n\r\n  function uploadPost(string memory _postIPFSHash) external userHasActiveAccount(msg.sender) {\r\n    require(bytes(_postIPFSHash).length > 0, \"Cannot pass an empty hash!\");\r\n    if (getUserPostOwnerLength(msg.sender) > 0) {\r\n      require(checkPostTimeoutEnded(getUserLastPostId(msg.sender)) == true,\r\n      \"Last post timeout has not yet ended in order to upload a new post!\");\r\n    }\r\n\r\n    uint postId = getPostsLength();\r\n\r\n    addPost(Post(_postIPFSHash, 0, payable(msg.sender), false, block.timestamp));\r\n    addPostOwner(msg.sender, postId);\r\n\r\n    emit PostCreated(postId, _postIPFSHash, payable(msg.sender), block.timestamp);\r\n  }\r\n\r\n  function tipPostOwner(uint _postId) external payable {\r\n    require(_postId >= 0 && _postId < getPostsLength(), \"Invalid post id!\");\r\n    require(getPostIsDisabled(_postId) == false, \"You can't tip a disabled post!\");\r\n    require(getPostAuthor(_postId) != msg.sender, \"Cannot tip your own post!\");\r\n    require(hasActiveAccount(getPostAuthor(_postId)) == true, \"The user you are trying to tip is not active!\");\r\n\r\n    setPostTipAmount(_postId, getPostTipAmount(_postId) + msg.value);\r\n\r\n    emit PostTipped(_postId, msg.value, getPostTipAmount(_postId), getPostAuthor(_postId), msg.sender);\r\n    getPostAuthor(_postId).transfer(msg.value);\r\n  }\r\n\r\n  function report(uint _postId) external userHasActiveAccount(msg.sender) {\r\n    require(_postId >= 0 && _postId < getPostsLength(), \"Invalid post id!\");\r\n    require(getPostIsDisabled(_postId) == false, \"You can't report a disabled post!\");\r\n    require(hasActiveAccount(getPostAuthor(_postId)) == true, \"The user you are trying to report is not active!\");\r\n    require(getPostAuthor(_postId) != msg.sender, \"Cannot report your own post!\");\r\n    require(checkUserIsInvolvedInACurrentReport(getPostAuthor(_postId)) == false,\r\n    \"The user you are intending to report is already involved in a current report session!\");\r\n    require(checkUserIsInvolvedInACurrentReport(msg.sender) == false,\r\n    \"You are already involved in a current report session!\");\r\n\r\n    addReport(Report(payable(msg.sender), _postId, 0, 0, block.timestamp, false));\r\n\r\n    emit Reported(_postId, payable(msg.sender));\r\n  }\r\n\r\n  function vote(uint _reportId, bool _up) external userHasActiveAccount(msg.sender) {\r\n    require(_reportId >= 0 && _reportId < getReportsLength(), \"Invalid report id!\");\r\n    require(checkReportVotingTimeEnded(_reportId) == false, \"Voting session ended!\");\r\n    require(getReportUserReported(_reportId) != msg.sender, \"Cannot vote since you are reported!\");\r\n    require(getReportUserReporting(_reportId) != msg.sender, \"Cannot vote since you are reporting!\");\r\n    require(userAlreadyVoted(_reportId, msg.sender) == false, \"You already voted!\");\r\n\r\n    setUserVoted(_reportId, msg.sender);\r\n    if (_up == true) {\r\n      incrementReportUpVotes(_reportId);\r\n    } else {\r\n      incrementReportDownVotes(_reportId);\r\n    }\r\n\r\n    emit Voted(_reportId, msg.sender, _up);\r\n  }\r\n\r\n  function getReportWinner (uint _reportId) external userHasActiveAccount(msg.sender) {\r\n    require(_reportId >= 0 && _reportId < getReportsLength(), \"Invalid report id!\");\r\n    require(getReportIsFinished(_reportId) == false, \"Report already finished!\");\r\n    require(checkReportVotingTimeEnded(_reportId) == true, \"Voting session has not ended yet!\");\r\n    require(checkReportWinnerTimeEnded(_reportId) == false, \"Winner reveal time ended!\");\r\n\r\n    address payable winner;\r\n    address payable loser;\r\n\r\n    if (getReportUpVotes(_reportId) > getReportDownVotes(_reportId)) {\r\n      winner = getReportUserReporting(_reportId);\r\n      loser = getReportUserReported(_reportId);\r\n      setPostIsDisabled(getReportPostId(_reportId), true);\r\n    } else {\r\n      winner = getReportUserReported(_reportId);\r\n      loser = getReportUserReporting(_reportId);\r\n    } \r\n\r\n    incrementUserPenaltyCount(loser);\r\n\r\n    uint _pricePaid = getUserPricePaid(loser);\r\n    setUserPricePaid(loser, 0);\r\n    setReportIsFinished(_reportId, true);\r\n\r\n    emit ReportWinner(_reportId, winner, loser, _pricePaid, getReportUpVotes(_reportId), getReportDownVotes(_reportId));\r\n    winner.transfer(_pricePaid);\r\n  }\r\n\r\n}",
  "sourcePath": "C:\\Projects\\Licenta\\backend\\contracts\\FreeSpeech.sol",
  "compiler": {
    "name": "solc",
    "version": "0.8.2+commit.661d1103.Emscripten.clang"
  },
  "schemaVersion": "3.4.7",
  "updatedAt": "2022-06-21T11:11:33.415Z",
  "networkType": "ethereum",
  "devdoc": {
    "kind": "dev",
    "methods": {},
    "version": 1
  },
  "userdoc": {
    "kind": "user",
    "methods": {},
    "version": 1
  }
}