{
  "contractName": "ProofOfHumanity",
  "abi": [
    {
      "inputs": [
        {
          "internalType": "address",
          "name": "_user",
          "type": "address"
        }
      ],
      "name": "isRegistered",
      "outputs": [
        {
          "internalType": "bool",
          "name": "",
          "type": "bool"
        }
      ],
      "stateMutability": "view",
      "type": "function",
      "constant": true
    },
    {
      "inputs": [
        {
          "internalType": "address",
          "name": "_user",
          "type": "address"
        }
      ],
      "name": "addRegistration",
      "outputs": [],
      "stateMutability": "nonpayable",
      "type": "function"
    }
  ],
  "bytecode": "0x608060405234801561001057600080fd5b50610229806100206000396000f3fe608060405234801561001057600080fd5b50600436106100365760003560e01c806323bca08a1461003b578063c3c5a54714610057575b600080fd5b6100556004803603810190610050919061014b565b610087565b005b610071600480360381019061006c919061014b565b6100e1565b60405161007e9190610183565b60405180910390f35b60016000808373ffffffffffffffffffffffffffffffffffffffff1673ffffffffffffffffffffffffffffffffffffffff16815260200190815260200160002060006101000a81548160ff02191690831515021790555050565b60008060008373ffffffffffffffffffffffffffffffffffffffff1673ffffffffffffffffffffffffffffffffffffffff16815260200190815260200160002060009054906101000a900460ff169050919050565b600081359050610145816101dc565b92915050565b60006020828403121561015d57600080fd5b600061016b84828501610136565b91505092915050565b61017d816101b0565b82525050565b60006020820190506101986000830184610174565b92915050565b60006101a9826101bc565b9050919050565b60008115159050919050565b600073ffffffffffffffffffffffffffffffffffffffff82169050919050565b6101e58161019e565b81146101f057600080fd5b5056fea2646970667358221220e54888efac0adca12c27deb8b71341fd553e5d865953e2e171a9a80853141f7f64736f6c63430008020033",
  "immutableReferences": {},
  "source": "// SPDX-License-Identifier: MIT\r\npragma solidity ^0.8.0;\r\n\r\ncontract ProofOfHumanity {\r\n  mapping (address => bool) private registered;\r\n\r\n  function isRegistered(address _user) external view returns (bool) {\r\n    return registered[_user];\r\n  }\r\n\r\n  function addRegistration(address _user) external {\r\n    registered[_user] = true;\r\n  }\r\n}",
  "sourcePath": "C:\\Projects\\Licenta\\backend\\contracts\\ProofOfHumanity.sol",
  "compiler": {
    "name": "solc",
    "version": "0.8.2+commit.661d1103.Emscripten.clang"
  },
  "schemaVersion": "3.4.7",
  "updatedAt": "2022-06-21T11:11:33.402Z",
  "networkType": "ethereum",
  "devdoc": {
    "kind": "dev",
    "methods": {},
    "version": 1
  },
  "userdoc": {
    "kind": "user",
    "methods": {},
    "version": 1
  }
}